S00E00005073754D6F6E2E73726563B4
S113000010C020C01FC01EC01DC01CC01BC01AC011
S113001019C018C017C016C015C014C013C012C030
S113002011C011241FBECFEDCDBF10E0A0E6B0E09B
S1130030EEE3F4E002C005900D92A237B107D9F7C0
S113004002D0FBC1DDCFCF93DF93CDB7DD27CB50FB
S1130050CDBF80E886BD16BC88E88ABB1BBA87E0A2
S113006087BB18BA81B9DF9A82E090E0D0D18F3F84
S113007071F08093620081E090E0C9D180936100C7
S113008080E090E0C4D180936000198202C021E036
S1130090298385E886B980E183B980E887B9369AEF
S11300A04FEF52E567E0415050406040E1F700C037
S11300B00000E981EE2349F0FFEF23ED40E3F15026
S11300C020404040E1F700C0000080E0D12CE12C4A
S11300D0F12CA12CB12CC12C20E030E8212C312CA6
S11300E06FEF7FEF7E836D831C821B821B861A86D3
S11300F0812C912C14E1412E512C01C080E08F5FA2
S11301001A821986188600E010E040E050E060E0B2
S1130110E0E01F829FEF7FEFFFEFA0E8A7B9369AD8
S11301203699FECFB5B1BF1708F4FB2F6F806B165D
S113013008F4BF834B0F511DB1E87B2E77B8369A74
S11301403699FECFB5B1B71708F47B2FEB1708F437
S1130150EB2F0B0F111DA2E8A7B9369A3699FECFE3
S1130160B5B1B91708F49B2F6B1708F46B2F68848B
S113017079846B0E711C79866886AA81A150AA8342
S1130180A111CBCF452F5527012F1127672C772499
S1130190AF81AF1BCA1608F4CA2EE71BBE1608F4BB
S11301A0BE2E691BA61608F4A62E90916200E92FB4
S11301B0F0E0E417F50720F4B42FB91B9B2F01C01E
S11301C0941BF91608F4F92E90916100E92FF0E0E0
S11301D0E017F10720F4E02FE91B9E2F01C0901BCC
S11301E0E91608F4E92E90916000E92FF0E0E61595
S11301F0F70520F4F62DF91B9F2F01C09619D91687
S113020008F4D92EE981EE23E9F0F4E1FF1520F09A
S1130210FE1510F0FD1510F4C19AFFCF4093620053
S11302200093610060926000642F82E090E0F7D058
S1130230602F81E090E0F3D0662D80E090E0EFD075
S1130240C09AFFCF843009F05ACFC901882199217F
S1130250892B11F0C09A01C0C0988A859B8582239E
S11302609323892B11F0C19A01C0C1988B819C8181
S113027082239323892B11F0C29A01C0C2988D81E5
S11302809E8182239323892B11F0DF9A01C0DF988A
S1130290C90182219321892B11F0DB9A01C0DB98DB
S11302A0369527952115310509F028CF80916000F6
S11302B090E0B20185D08D2D77D0E82F8A2D6BE1A7
S11302C073D0E81708F4E82F2E2FE63008F025E065
S11302D0A22FB0E0AA0FBB1FAB59BF4F6D907C900B
S11302E07C826B828091610090E0B20169D08E2D96
S11302F05BD0A82F8B2D6BE057D0A81708F4A82F3C
S1130300A63008F0A5E02A1708F42A2FB0E0AA0FB7
S1130310BB1FAB59BF4F4D915C915B874A8780915E
S11303206200982F96959F15D0F090E0B20148D0C6
S11303308F2D3AD0A82F8C2D6BE036D0A81708F457
S1130340A82FA63008F0A5E02A1708F42A2FB0E059
S1130350AA0FBB1FAB59BF4F8D909C9002C0812C3C
S1130360912CA22FB0E0AA0FBB1FAB59BF4F6D91C8
S11303707C917E836D83223018F0E22FE25001C01D
S1130380E0E0F0E0EE0FFF1FEB59FF4F20803180DB
S11303902094309480E0D12CE12CF12CA12CB12CB0
S11303A0C12C20E030E8ABCE991B79E004C0991F42
S11303B0961708F0961B881F7A95C9F780950895BB
S11303C097FB072E16F4009406D077FD08D00BD0C7
S11303D007FC05D03EF4909581959F4F0895709544
S11303E061957F4F0895AA1BBB1B51E107C0AA1F4B
S11303F0BB1FA617B70710F0A61BB70B881F991FC2
S11304005A95A9F780959095BC01CD010895E1997D
S1130410FECF1FBA8EBBE09A99278DB30895262F7D
S1130420E199FECF1CBA1FBA8EBB2DBB0FB6F89450
S1110430E29AE19A0FBE01960895F894FFCF68
S113043ED5CBCE0000FFFFFF7FFF5FFF57FF557F39
S105044E550053
S9030000FC
